:020000040000FA
:0600000045EF01F01200C3
:020006001200E6
:060008000EEF00F01200F3
:02000E000100EF
:0C001000A60200006A00000008000000CA
:04001C00DACFE4FF54
:10002000E2CFDAFFE9CFE4FFEACFE4FFF6CFE4FF67
:10003000F7CFE4FFF5CFE4FFF3CFE4FFF4CFE4FF25
:10004000FACFE4FF00EE00F0020EE80403E3EECF87
:10005000E4FFFBD700EE02F0000EE80403E3EECF6E
:10006000E4FFFBD7E652F2A404D0F29467D81E0E48
:10007000D66E9EA002D09E9073D89EA202D09E9271
:1000800081D8A1A202D0A1928FD8E55200EE01F052
:10009000000EE80403E3E5CFEDFFFBD700EE01F02F
:1000A000020EE80403E3E5CFEDFFFBD7E5CFFAFF4F
:1000B000E5CFF4FFE5CFF3FFE5CFF5FFE5CFF7FFA1
:1000C000E5CFF6FFE5CFEAFFE5CFE9FFE5CFDAFFC1
:1000D0001100D59ECD90CA94B190C186C184C182D1
:1000E000C1809396939493929390819681948192F8
:1000F0008190D08EF28EF28AF184D58CD59AD596E5
:10010000D584D582D5809D809F80CD9ACD98CD967F
:10011000CD92CA82CA80CA8CCA8ACA88CA86C80EC8
:10012000CB6E9D829F82A082A282B19AB188B19249
:10013000D58ECD80CA84B180FFD7120000016A51EC
:100140006B1105E18180010E6A6F6B6B08D0010EA7
:100150006A1901E16B5103E181906A6B6B6B1200CC
:1001600000016C516D1105E18182010E6C6F6D6BA8
:1001700008D0010E6C1901E16D5103E181926C6BA5
:100180006D6B120000016E516F1105E18184010E4B
:100190006E6F6F6B08D0010E6E1901E16F5103E1B4
:1001A00081946E6B6F6B120000017051711105E14B
:1001B0008186010E706F716B08D0010E701901E11C
:0C01C000715103E18196706B716B1200AD
:0401CC000E0EF66EAF
:1001D000000EF76E000EF86E00010900F550656F15
:1001E0000900F550666F03E1656701D03DD0090055
:1001F000F550606F0900F550616F0900F550626FAE
:1002000009000900F550E96E0900F550EA6E090091
:1002100009000900F550636F0900F550646F09008B
:100220000900F6CF67F0F7CF68F0F8CF69F060C04B
:10023000F6FF61C0F7FF62C0F8FF0001635302E1FF
:10024000645307E00900F550EE6E6307F8E26407B7
:10025000F9D767C0F6FF68C0F7FF69C0F8FF000173
:0A0260006507000E665BBFD71200B1
:06026A00000EF36E00EE31
:1002700000F0080E01D81200EA6002D0EE6AFCD746
:0A028000F350E9601200EE6AFCD7AB
:06028A0013EE00F023EE6C
:1002900000F0F86A019CE6EC00F003EC00F069EC79
:0602A00000F0FBD7120084
:0802A600000000000000000050
:020000040030CA
:0100000024DB
:0100010008F6
:0100020019E4
:010003001EDE
:0100050001F9
:010006008178
:010008000FE8
:01000900C036
:01000A000FE6
:01000B00E014
:01000C000FE4
:01000D0040B2
:00000001FF
